:1000000016C02EC02DC074C02BC02AC029C028C065
:1000100027C026C0B7C0BBC0BFC0C3C0C7C0CBC00D
:10002000CFC0D3C0D7C0DBC0DFC0E3C0E7C011245E
:100030001FBECFE9CDBF10E0A0E6B0E0E6ECF2E0F5
:1000400002C005900D92A236B107D9F720E0A2E6D2
:10005000B0E001C01D92A538B207E1F702D031C16E
:10006000CFCF85B7806485BF17BA18BA1FBC84E0AC
:1000700083BF8AEF82BF82E089BF78942FE03AE0A5
:100080004DE0F89480916400109264007894882385
:1000900001F1813019F41092620021C08230F9F42C
:1000A000409362001CC01082981301C020838F5FB0
:1000B00031968D30C1F7E0916A00F0E0E05AFF4FD1
:1000C00030839F5F9D3018F49093630002C01092BC
:1000D000630000000000000000000000D2CF9091FB
:1000E0006300E0916200F0E0E559FF4F80E0DBCF74
:1000F0001F920F920FB60F9211242F933F934F939D
:100100005F936F937F938F939F93AF93BF93EF937F
:10011000FF938091670080FD09C08091660082BFD7
:1001200017BA18BA81E080936700BAC0E0916900FD
:10013000F0E080916800E559FF4FE80FF11D8081E4
:10014000811105C080EF82BF17BA18BA64C08195CB
:1001500082BF90916900292F30E0E0916800D901B9
:10016000A559BF4FAE0FB11D8C9180518093660091
:100170004E2F50E04D30510508F045C0FA01E65FC2
:10018000FF4F099489E087BB81E088BB44C08AE0C7
:1001900087BB82E088BB3FC08CE087BB84E088BB24
:1001A0003AC089E087BB88E088BB35C08AE087BB5E
:1001B00088E088BB30C08CE087BB88E088BB2BC060
:1001C00081E187BB80E188BB26C082E187BB80E1FB
:1001D00088BB21C084E187BB80E188BB1CC088E16B
:1001E00087BB88E088BB17C081E187BB81E088BB03
:1001F00012C082E187BB82E088BB0DC084E187BB6F
:1002000084E088BB08C0F901E559FF4F8081815027
:100210008E3080F042C09091690080916800E92F93
:10022000F0E0E559FF4FE80FF11D208121502E30FD
:1002300020F401C080E0109267008F5F8D3018F4C9
:10024000809368002DC0109268008091650088231B
:1002500029F0815080936500811122C0E0916A00ED
:10026000EF5FE0936A00935F90936900E23048F09B
:1002700010926A001092690082E080936400E0E0CE
:1002800005C0E13019F481E080936400F0E0E05AA9
:10029000FF4F80818093650003C081E080936800F8
:1002A000FF91EF91BF91AF919F918F917F916F914E
:1002B0005F914F913F912F910F900FBE0F901F9024
:0602C0001895F894FFCF31
:0202C6000A0A22
:00000001FF
