:100000007AC094C093C092C091C090C08FC08EC07F
:100010008DC08CC08BC0D0C189C088C087C086C04D
:1000200085C00F000000000000000000000000007C
:1000300001FF0100000000000000000000000F08A8
:1000400000FF01000000000000000000000F080099
:1000500000FF010000000000000000000F08000089
:1000600000FF0100000000000000000F0800000079
:1000700000FF01000000000000000F080000000069
:1000800000FF000000000000010F08000000000059
:1000900000000000000001FF0F0800000000000049
:1000A0000000000001FF000F080000000000000039
:1000B000000001FF00000F08000000000000000029
:1000C00001FF0000000F080000000000000001FF19
:1000D000000000000F0800000000000001FF000009
:1000E0000000000F08010000000000FF00000000F9
:1000F00000000F0800D211241FBECFE5D1E0DEBF03
:10010000CDBF10E0A0E6B0E0E0EDF5E002C0059064
:100110000D92A238B107D9F720E0A2E8B0E001C003
:100120001D92AC39B207E1F7EAD050C269CF81E243
:1001300087B986E886B980E183B981EE94E00197BA
:10014000F1F700C00000089580919800807F8F7EB5
:100150008093980086E48093990082E080939A00CF
:1001600010929B00BA98C29A089580919A008823B1
:1001700029F0EAE9F0E080818150808380919B0042
:10018000813079F028F0823011F18330B9F14FC01D
:10019000B2994FC082E080939A0081E080939B00E7
:1001A0000895B29B03C010929B00089580919A001D
:1001B00081113FC080919800836080628093980095
:1001C00082E080939B0086E4809399000895B29B1F
:1001D00007C082E080939A0083E080939B0008959B
:1001E00080919900811125C08EE1809399008091C2
:1001F00098008F7D8860809398000895B29904C01C
:1002000082E080939B00089580919A00811111C033
:10021000809198008E7F846085FB992790F990FBF0
:1002200084F98F7D8093980010929B00089510921E
:100230009B00089583E087BB86E088BB8FEF8ABB75
:100240001BBA10BE84E083BF8AEF82BF81E089BF02
:100250000895109295001092940080EF9FEF909374
:10026000720080937100E2E6F0E0A7E8B0E08FE66C
:1002700090E011921D92E817F907D9F7E2E6F0E055
:1002800081E085878687E3E7F0E08587868710929F
:10029000970010929600109286001092850010929E
:1002A00084001092830084E0809361008FEF80933C
:1002B00060001092820008958BB78B7F8BBF0895EA
:1002C00019BE8FE080B988B38C7F88BB1BBA85B715
:1002D000877E806185BF85B7806285BF889585B739
:1002E0008F7D85BFF89483E087BB86E088BB8FEF66
:1002F0008ABB1BBAE1DF9EDFACDF789408959ADFFA
:10030000A8DF22DF14DF1BBA789417E2C9E9D0E036
:10031000809182008111FCCF109382008881882314
:1003200019F088818150888320DF8091980081FFB7
:1003300003C08D7F809398008091980082FF03C056
:100340008B7F809398008091980083FF05C0877F02
:1003500080939800B5DFDCCF84FFDACF80919800DE
:100360008F7E80939800D4CF40917100509172009D
:10037000FA01EE5DFF4FA2E6B0E02FE630E0849197
:100380009C91890F8D933196A217B307C1F7FA019B
:10039000E15DFF4F8491A2E6B0E01D968C931D971E
:1003A000FA01E05DFF4F44911E964C93811103C00A
:1003B00081E080936F0008951F920F920FB60F9205
:1003C00011242F933F934F935F936F937F938F935A
:1003D0009F93AF93BF93EF93FF9380918200882305
:1003E00029F0809182008150809382008091840066
:1003F00081111AC01BBA81E080938400C098C19A11
:1004000080916000880F80936000809161008F5F11
:10041000843008F4A8C0109261008FEF80936000D0
:1004200090E045E020E0A4C0109284001BBAC09A7E
:10043000C198E7E8F0E08485982F9170990F869530
:1004400084874BE026E094C0E22FF0E0E957FF4FAD
:100450008081382F3170932B990F869580832F5F81
:10046000421790F79BBB80916100833009F09DC0DB
:1004700080918400811199C080919600882359F160
:1004800080919700882309F482C040918000411137
:1004900073C0E2E6F0E08FE690E011928E179F07BE
:1004A000E1F76AC08D919081890F8193E217F3077C
:1004B000C9F7E2E6F0E04587809181008687411127
:1004C00066C081E080936F0062C081918D932E178A
:1004D0003F07D9F76AC0809185008F5F80938500C0
:1004E0009091700089135AC0109285008091860007
:1004F0008F5F8093860090916F0089132CC01092BB
:1005000086002091710030917200215F3F4F30933F
:10051000720020937100E0919400F0919500EB50EF
:10052000FF4F849190E02817390720F01092720055
:1005300010927100E0917100F0917200E15DFF4F47
:10054000E491E11108C0E2E6F0E08FE690E011925C
:100550008E179F07E1F708DF21C081918D932E1739
:100560003F07D9F722C08093610090E045E020E08A
:100570008091600082BF68CFA0917100B09172003D
:10058000AD58BF4FE2E6F0E02FE630E08BCFE2E679
:10059000F0E0A7E8B0E02FE630E097CFE2E6F0E049
:1005A000A7E8B0E02FE630E0D8CFFF91EF91BF9100
:1005B000AF919F918F917F916F915F914F913F91FB
:1005C0002F910F900FBE0F901F901895F894FFCFAA
:1005D000FF04000000000000000000000000000117
:1005E00001FFFF000000000000000000000000000C
:0205F000010107
:00000001FF
