S012000053454D2D6B61726966612E7372656392
S1130000F8C312C411C410C40FC40EC40DC40CC46C
S11300100BC40AC409C427C407C406C405C404C461
S113002003C40F00000000000000000000000000F6
S113003001FF0100000000000000000000000F08A4
S113004000FF01000000000000000000000F080095
S113005000FF010000000000000000000F08000085
S113006000FF0100000000000000000F0800000075
S113007000FF01000000000000000F080000000065
S113008000FF000000000000010F08000000000055
S113009000000000000001FF0F0800000000000045
S11300A00000000001FF000F080000000000000035
S11300B0000001FF00000F08000000000000000025
S11300C001FF0000000F080000000000000001FF15
S11300D0000000000F0800000000000001FF000005
S11300E00000000F08010000000000FF00000000F5
S11300F000000F08000000000000000000000F00D6
S113010000010C00000000000000000000000F00CF
S1130110010C0000000000000000000000000F01BE
S11301200C00000000000000000000000000007847
S11301300F000000000000000000000000000000AC
S113014000000000000000000000000000000000AB
S1130150000000000000000000000000000000009B
S1130160000000000000000000000000000000008B
S1130170000000000000000000000000000000007B
S11307F0000011241FBECFE5D1E0DEBFCDBF10E065
S1130800A0E6B0E0E0E1FAE002C005900D92A23764
S1130810B107D9F720E0A2E7B0E001C01D92A338E8
S1130820B207E1F702D0F2C0EBCBEAE0F4E0E491E6
S1130830EE2319F081E08093820083E087BB86E099
S113084088BB9FEF9ABB9BBB90E898B981B916B857
S11308508BE080B910BE84E083BF8AEF82BF81E061
S113086089BF7894FFCF1F920F920FB60F92112475
S11308702F933F934F935F938F939F93AF93BF9324
S1130880EF93FF938091720081111AC01BBA81E02B
S113089080937200C098C19A80917000880F8093F1
S11308A07000809171008F5F843008F48CC01092C6
S11308B071008FEF8093700090E045E020E088C0E5
S11308C0109272001BBAC09AC198E5E7F0E08485E3
S11308D0982F9170990F869584874BE026E078C015
S11308E0E22FF0E0EB58FF4F8081382F3170932BCB
S11308F0990F869580832F5F421790F79BBB809159
S11309007100833009F073C08091720081116FC04F
S1130910809173008F5F8093730090916E008913B0
S113092044C010927300809174008F5F80937400B0
S113093090916D00891350C01092740080916F00E3
S1130940815F823D18F480936F0002C010926F00A3
S1130950E0916F00F0E0E15DFF4FE491E1113CC0F4
S1130960E0E6F0E08DE690E01192E817F907E1F790
S113097033C084919C91890F8D933196A217B3074C
S1130980C1F7FA01E15DFF4F8491A0E6B0E01D9646
S11309908C931D97FA01E05DFF4F44911E964C9392
S11309A0811103C081E080936D0010927500E0E630
S11309B0F0E0A5E7B0E02DE630E081918D932E17AD
S11309C03F07D9F714C08093710090E045E020E020
S11309D08091700082BF84CF40916F0050E0FA0193
S11309E0EE5DFF4FA0E6B0E02DE630E0C2CFFF9110
S11309F0EF91BF91AF919F918F915F914F913F91F3
S1130A002F910F900FBE0F901F901895F894FFCF61
S1130A10000000000000000000000000000101D3FD
S1050A20FF04CD
S9030000FC
