:100000004AC1FCC363C162C161C160C15FC15EC15D
:1000100000C45CC15BC115C459C158C157C156C1A8
:1000200055C10F000F00000F0F00000F000F0F0051
:1000300010000F000F0F00000F0F000F0000001046
:100040000F000000000000000000000F0000100082
:100050000F000F0F00000F0F000F000000100F0027
:100060000000000000000000000F00001000000071
:100070000F000000000F0000000000100F000F0034
:10008000000F0F000F00000F0F00100000000F0006
:100090000000000F0000000000100F000000000032
:1000A000000000000000000001FF0100000000004F
:1000B0000000000000000F0400FF0100000000002D
:1000C00000000000000F040000FF0100000000001D
:1000D000000000000F04000000FF0100000000000D
:1000E0000000000F0400000000FF010000000000FD
:1000F00000000F040000000000FF000000000000EE
:10010000010F04000000000000000000000001FFDB
:100110000F040000000000000000000001FF000FBD
:100120000400000000000000000001FF00000F04B8
:10013000000000000000000001FF0000000F0400AC
:1001400000000000000001FF000000000F0400009C
:100150000000000001FF00000000000F040100008B
:10016000000000FF0000000000000F040F0F0F0F41
:100170000F0F0F0F0F0F0F0F0F0082000000000076
:1001800000000000000000000082000000000000ED
:100190000000000000000000010101010101010157
:1001A0000101010101010F10FFFFFFFFFFFFFFFF32
:1001B000FFFFFFFFFF0F1000000000000000010024
:1001C000000000000F0800000100000000FF000018
:1001D0000000000F080000FF000000000000000108
:1001E00000000F0801000000000000000000FF00F8
:1001F000000F08FF000000000100000000000000E8
:100200000F080000000000FF000100000000000FC8
:100210000800000000000000FF00000001000F08BF
:100220000001000000000000000000FF000F0800B7
:10023000FF00010000000000000000000F080000A7
:1002400000FF0000010000000000000F0800000097
:10025000000000FF0000000000010F080000000087
:100260000000000000010000FF0F08000000000176
:1002700000000000FF0000000F0800000000FF0069
:10028000000000000000000F08000078004A01682C
:1002900001950167020011241FBECFE5D1E0DEBF4A
:1002A000CDBF10E0A0E6B0E0E8EAFAE002C00590B9
:1002B0000D92A238B107D9F720E0A2E8B0E001C062
:1002C0001D92AD39B207E1F721D2ECC399CE81E29C
:1002D00087B986E886B980E183B9009881EE94E019
:1002E0000197F1F700C0000008953798009A08952B
:1002F000369A0000349BFECF25B1253908F024E959
:1003000030E024593109C901880F991F880F991FBE
:10031000880F991F821B930B60ED7FEF9CD3862F74
:10032000089580919900807F8F7E8093990084E664
:1003300080939A0082E080939B0010929C00BA9870
:10034000C29A089580919B00882329F0EBE9F0E0A0
:1003500080818150808380919C00813079F028F0E9
:10036000823011F18330A1F14CC0B2994CC082E0CF
:1003700080939B0081E080939C000895B29B03C012
:1003800010929C00089580919B0081113CC0809147
:100390009900836080628093990082E080939C0042
:1003A00084E680939A000895B29B07C082E0809310
:1003B0009B0083E080939C00089580919A008111B6
:1003C00022C0809199008F7D886080939900089564
:1003D000B29904C082E080939C00089580919B00B4
:1003E000811111C0809199008E7F846085FB9927CF
:1003F00090F990FB84F98F7D8093990010929C0076
:10040000089510929C00089510BE84E083BF8AEF87
:1004100082BF81E089BF029808951FBC85E08EBD30
:100420008FEF8DBD8CBD81E08CB90398089583E07A
:1004300087BB86E088BB8FEF8ABB1BBA10B8E4DFAE
:10044000ECDF08951092960010929500109294009F
:1004500080EF9FEF9093720080937100E2E6F0E0EE
:10046000A7E8B0E08FE690E011921D92E817F90737
:10047000D9F7E2E6F0E081E085878687E3E7F0E000
:1004800085878687109298001092970010928600B8
:1004900010928500109284001092830084E0809373
:1004A00061008FEF809360001092820008958BB7F7
:1004B0008F7B8BBF089585B78E7F85BF85B78D7F76
:1004C00085BF8BB780648BBF0895CF93DF93FFDE2A
:1004D0001BBA0EDFC82F89EF90E00197F1F700C03B
:1004E000000003DF81E080939700C73008F0C7E089
:1004F0007894809198008111FCCFE3E7F0E01586B5
:100500008DE0868750E075E03FE0DF0161E01BC0D1
:10051000822F90E0FC01ED58FF4F3083FC01E7583B
:10052000FF4F30832F5F421798F7563019F41C960F
:100530003C931C9760939800809198008111FCCFA8
:100540005F5F573031F0452F563008F0472F20E0DD
:10055000DFCFE3E7F0E015868DE08687C73041F511
:100560003DC0FC01ED58FF4F10829C012A5F3F4FB8
:10057000F901ED58FF4F10828417950744F4FC01F0
:10058000ED58FF4F6083F901ED58FF4F60830196EE
:100590008630910531F71C961C921C97D0939800D9
:1005A000809198008111FCCF7150C71306C016C00E
:1005B00077E06FE0A3E7B0E0D1E080E090E0472F84
:1005C00050E041505109CDCF36872093980080915B
:1005D00098008111FCCF9150B9F706C093E0E3E792
:1005E000F0E032E821E0F0CFDF91CF910895CF9392
:1005F000C82FF89427DFC0939600C53048F41092B6
:1006000097008C2F90E090939500809394001FC0EA
:10061000CF3F99F481E08093970080E090E0FC0167
:10062000ED58FF4F108201968D309105C1F7E3E739
:10063000F0E0158681E086870AC0109297008C2F23
:1006400090E0909395008093940010929600789497
:10065000CF910895CF9319BE1BBA8091990082FD66
:1006600005C070DE8091990082FFFBCF80919900D8
:100670008B7F8093990089EF90E00197F1F700C09C
:1006800000004FDECFE0C0B988B38C7F88BB1BBAB7
:1006900012DF85B7877E806185BF85B7806285BFA1
:1006A000889585B78F7D85BF02DF4CDE80919900EC
:1006B00081FF0EC08D7F8093990083EC99E00197B4
:1006C000F1F700C000008091990082FF08C012C0BD
:1006D00083EC99E00197F1F700C00000D4CF32DE3F
:1006E00083EC99E00197F1F700C000008091990038
:1006F00082FFF5CFF894A6DE8FEF79DF98DE11DE6A
:10070000789410B8E2DE9EDECF910895E0DD8FDEB2
:1007100099DE07DE8FEF6BDFD8DE94DE78941AE087
:10072000CAE9D0E0809182008111FCCF1093820051
:100730008881882319F088818150888303DE809125
:10074000990081FF03C08D7F80939900809199006B
:1007500082FF03C08B7F809399008091990083FF73
:1007600005C0877F8093990075DFDCCF84FFDACFE7
:10077000809199008F7E80939900809196008530BA
:1007800040F4843019F480E032DFCCCF8F5F2FDF6C
:10079000C9CF80E02CDFC6CF42E650E02FE630E044
:1007A000DA018091710090917200FD01E41BF50B5C
:1007B000E80FF91FEE5DFF4FE4918C91E80FED9388
:1007C000A217B30771F7E0917100F0917200E15D3B
:1007D000FF4F8491A2E6B0E01D968C931D97E091A7
:1007E0007100F0917200E05DFF4FE4911E96EC9372
:1007F000811103C081E080936F0008951F920F92D2
:100800000FB60F921124F8940F900FBE0F901F9007
:1008100018951F920F920FB60F9211248F9380910B
:100820008200882329F08091820081508093820089
:100830008FEF8DBD8CBD8F910F900FBE0F901F90CD
:1008400018951F920F920FB60F9211242F933F937A
:100850004F935F936F937F938F939F93AF93BF93C8
:10086000EF93FF938091840081111AC01BBA81E03D
:1008700080938400C098C19A80916000880F809313
:100880006000809161008F5F843008F4BDC01092D9
:1008900061008FEF8093600090E045E020E0B9C0F8
:1008A000109284001BBAC09AC198E7E8F0E08485F2
:1008B000982F9170990F869584874BE026E0A9C008
:1008C000E22FF0E0E957FF4F8081382F3170932BF2
:1008D000990F869580832F5F421790F79BBB80917D
:1008E0006100833009F0A6C0809184008111A2C00C
:1008F000809185008F5F80938500909170008913AF
:1009000092C01092850080919700882389F1809190
:100910009800882309F487C08091800081117DC0F0
:10092000E2E6F0E08FE690E011928E179F07E1F784
:1009300074C0DF01A41BB50BAD58BF4F8C919081E3
:10094000890F81932E173F07A1F7A3E7B0E01D960B
:100950008C911D97E2E6F0E085871E969C91968724
:10096000811103C081E080936F00109298005BC0FA
:10097000809186008F5F8093860090916F0089132D
:100980003BC01092860080917100909172000F968A
:100990009093720080937100E0919400F091950023
:1009A000EE0FFF1FE557FD4F2591349180917100A7
:1009B000909172008217930770F0E0919400F0918B
:1009C0009500EE0FFF1FE757FD4F8591949190938F
:1009D000720080937100E0917100F0917200E15D0E
:1009E000FF4FE491E11108C0E2E6F0E08FE690E00D
:1009F00011928E179F07E1F7CFDE15C081918D937D
:100A00002E173F07D9F716C08093610090E045E0AC
:100A100020E08091600082BF53CF42E650E02FE695
:100A200030E0FA0186CFE2E6F0E0A7E8B0E02FE69A
:100A300030E0E4CFFF91EF91BF91AF919F918F9103
:100A40007F916F915F914F913F912F910F900FBECA
:100A50000F901F90189597FB072E16F4009406D060
:100A600077FD08D00BD007FC05D03EF4909581951A
:100A70009F4F0895709561957F4F0895AA1BBB1BEA
:100A800051E107C0AA1FBB1FA617B70710F0A61B8E
:100A9000B70B881F991F5A95A9F780959095BC01AF
:080AA000CD010895F894FFCF89
:100AA800FF0400000000000000000000000000013A
:100AB80001FFFF000000000000000000000000002F
:020AC80001012A
:00000001FF
