:100000008AC0A4C0A3C0A2C0A1C0A0C09FC09EC0FF
:1000100018C29CC09BC02DC299C098C097C096C002
:1000200095C00F000000000000000000000000006C
:1000300001FF0100000000000000000000000F08A8
:1000400000FF01000000000000000000000F080099
:1000500000FF010000000000000000000F08000089
:1000600000FF0100000000000000000F0800000079
:1000700000FF01000000000000000F080000000069
:1000800000FF000000000000010F08000000000059
:1000900000000000000001FF0F0800000000000049
:1000A0000000000001FF000F080000000000000039
:1000B000000001FF00000F08000000000000000029
:1000C00001FF0000000F080000000000000001FF19
:1000D000000000000F0800000000000001FF000009
:1000E0000000000F08010000000000FF00000000F9
:1000F00000000F080F0F0F0F0F0F0F0F0F0F0F0F35
:100100000F0082000000000000000000000000005E
:10011000008200D2F00011241FBECFE5D1E0DEBF87
:10012000CDBF10E0A0E6B0E0E6E6F6E002C0059044
:100130000D92A238B107D9F720E0A2E8B0E001C0E3
:100140001D92AD39B207E1F710D18BC259CF81E2D0
:1001500087B986E886B980E183B981EE94E001979A
:10016000F1F700C00000089580919900807F8F7E94
:100170008093990086E480939A0082E080939B00AC
:1001800010929C00BA98C29A089580919B0088238F
:1001900029F0EBE9F0E080818150808380919C0020
:1001A000813079F028F0823011F18330B9F14FC0FD
:1001B000B2994FC082E080939B0081E080939C00C5
:1001C0000895B29B03C010929C00089580919B00FB
:1001D00081113FC080919900836080628093990073
:1001E00082E080939C0086E480939A000895B29BFD
:1001F00007C082E080939B0083E080939C00089579
:1002000080919A00811125C08EE180939A0080919F
:1002100099008F7D8860809399000895B29904C0F9
:1002200082E080939C00089580919B00811111C011
:10023000809199008E7F846085FB992790F990FBCF
:1002400084F98F7D8093990010929C0008951092FC
:100250009C00089583E087BB86E088BB8FEF8ABB54
:100260001BBA10BE94E093BF9AEF92BF91E099BF82
:100270001FBC25E02EBD8DBD8CBD9CB9089510928C
:1002800095001092940080EF9FEF909372008093FE
:100290007100E2E6F0E0A7E8B0E08FE690E01192AE
:1002A0001D92E817F907D9F7E2E6F0E081E08587CB
:1002B0008687E3E7F0E085878687109298001092A2
:1002C0009700109286001092850010928400109280
:1002D000830084E0809361008FEF80936000109230
:1002E000820008958BB78B7F8BBF089519BE8FE076
:1002F00080B988B38C7F88BB1BBA85B7877E806145
:1003000085BF85B7806285BF889585B78F7D85BF9E
:10031000F89483E087BB86E088BB8FEF8ABB1BBA6B
:10032000E1DF98DFACDF78940895CF93C82FF8947D
:10033000A6DFC0939600CC2319F0C13041F010C065
:100340001092970010929500109294000BC010929A
:10035000970081E090E0909395008093940002C014
:10036000109296007894CF91089574DF88DFFCDEB8
:10037000EEDE1BBA78941AE0CAE9D0E080918200E0
:100380008111FCCF109382008881882319F0888125
:1003900081508883FADE8091990081FF03C08D7FB0
:1003A000809399008091990082FF03C08B7F809396
:1003B00099008091990083FF05C0877F8093990001
:1003C00095DFDCCF84FFDACF809199008F7E809318
:1003D000990080919600882319F0813021F006C0A1
:1003E00081E0A3DFCBCF80E0A0DFC8CF80E09DDF3E
:1003F000C5CF4091710050917200FA01EE5DFF4F40
:10040000A2E6B0E02FE630E084919C91890F8D93B5
:100410003196A217B307C1F7FA01E15DFF4F84914E
:10042000A2E6B0E01D968C931D97FA01E05DFF4FA8
:1004300044911E964C93811103C081E080936F001C
:1004400008951F920F920FB60F9211248F938091EF
:100450008200882329F0809182008150809382005D
:100460008FEF8DBD8CBD8F910F900FBE0F901F90A1
:1004700018951F920F920FB60F9211242F933F934E
:100480004F935F936F937F938F939F93AF93BF939C
:10049000EF93FF938091840081111AC01BBA81E011
:1004A00080938400C098C19A80916000880F8093E7
:1004B0006000809161008F5F843008F4AAC01092C0
:1004C00061008FEF8093600090E045E020E0A6C0DF
:1004D000109284001BBAC09AC198E7E8F0E08485C6
:1004E000982F9170990F869584874BE026E096C0EF
:1004F000E22FF0E0E957FF4F8081382F3170932BC6
:10050000990F869580832F5F421790F79BBB809150
:100510006100833009F094C080918400811190C003
:10052000809185008F5F8093850090917000891382
:1005300080C01092850080919700882339F18091C6
:100540009800882309F475C04091800041116AC069
:10055000E2E6F0E08FE690E011928E179F07E1F758
:1005600061C08D919081890F8193E217F307C9F7DC
:10057000E2E6F0E04587809181008687411103C063
:1005800081E080936F001092980053C080918600A4
:100590008F5F8093860090916F00891332C0109214
:1005A00086004091710050917200415F5F4F5093FF
:1005B0007200409371008091940090919500FC012D
:1005C000ED5EFE4F249130E04217530748F0FC01E6
:1005D000EE5EFE4F849190E09093720080937100E4
:1005E000E0917100F0917200E15DFF4FE491E11143
:1005F00008C0E2E6F0E08FE690E011928E179F07C8
:10060000E1F7F7DE16C081918D932E173F07D9F7DA
:1006100017C08093610090E045E020E08091600089
:1006200082BF66CFA3E7B0E0E2E6F0E02FE630E07D
:1006300098CFE2E6F0E0A7E8B0E02FE630E0E3CFC5
:10064000FF91EF91BF91AF919F918F917F916F91AA
:100650005F914F913F912F910F900FBE0F901F9080
:060660001895F894FFCF8D
:10066600FF04000000000000000000000000000180
:1006760001FFFF0000000000000000000000000075
:02068600010170
:00000001FF
