S012000053454D2D6B61726966612E7372656392
S113000082C09CC09BC09AC099C098C097C096C03B
S113001095C094C093C0C7C191C090C08FC08EC01A
S11300208DC00F0000000000000000000000000070
S113003001FF0100000000000000000000000F08A4
S113004000FF01000000000000000000000F080095
S113005000FF010000000000000000000F08000085
S113006000FF0100000000000000000F0800000075
S113007000FF01000000000000000F080000000065
S113008000FF000000000000010F08000000000055
S113009000000000000001FF0F0800000000000045
S11300A00000000001FF000F080000000000000035
S11300B0000001FF00000F08000000000000000025
S11300C001FF0000000F080000000000000001FF15
S11300D0000000000F0800000000000001FF000005
S11300E00000000F08010000000000FF00000000F5
S11300F000000F080F0F0F0F0F0F0F0F0F0F0F0F31
S11301000F000100D20011241FBECFE5D1E0DEBFF5
S1130110CDBF10E0A0E6B0E0ECE3F5E002C005904E
S11301200D92A437B107D9F720E0A4E7B0E001C0ED
S11301301D92AC38B207E1F7DBD0FEC161CF8091EC
S11301408800807F8F7E8093880086E48093890076
S113015082E080938A0010928B00BA98C29A089524
S113016080918A00882329F0EAE8F0E080818150B8
S1130170808380918B00813079F028F0823011F1F6
S11301808330B9F14FC0B2994FC082E080938A00A6
S113019081E080938B000895B29B03C010928B0082
S11301A0089580918A0081113FC080918800836006
S11301B080628093880082E080938B0086E4809341
S11301C089000895B29B07C082E080938A0083E08F
S11301D080938B00089580918900811125C08EE160
S11301E080938900809188008F7D88608093880047
S11301F00895B29904C082E080938B0008958091A1
S11302008A00811111C0809188008E7F846085FBF3
S1130210992790F990FB84F98F7D80938800109240
S11302208B00089510928B00089583E087BB86E0CD
S113023088BB9FEF9ABB1BBA90E898B981B916B8EE
S11302408BE080B910BE84E083BF8AEF82BF81E077
S113025089BF0895109287001092860080EF9FEF67
S11302609093720080937100E2E6F0E0A9E7B0E0B9
S11302708FE690E011921D92E817F907D9F7E2E6AC
S1130280F0E081E0858786871092780010927700ED
S1130290109276001092750084E0809361008FEFD5
S11302A0809360001092740008958BB78B7F8BBF8E
S11302B0089519BE8FE080B988B38C7F88BB1BBAC0
S11302C085B7877E806185BF85B7806285BF889545
S11302D085B78F7D85BFF89483E087BB86E088BBB4
S11302E08FEF8ABB1BBAE1DFA0DFB4DF78940895F7
S11302F09CDFB0DF24DF789417E2C9E8D0E0809176
S113030074008111FCCF109374008881882319F044
S113031088818150888324DF8091880081FF03C015
S11303208D7F809388008091880082FF03C08B7F3B
S1130330809388008091880083FF05C0877F809325
S11303408800B7DFDCCF84FFDACF809188008F7E0E
S113035080938800D4CF4091710050917200FA01CB
S1130360EE5DFF4FA2E6B0E02FE630E084919C9171
S1130370890F8D933196A217B307C1F7FA01E15D96
S1130380FF4F8491A2E6B0E01D968C931D97FA016D
S1130390E05DFF4F44911E964C93811103C081E0B0
S11303A080936F0008951F920F920FB60F9211243D
S11303B02F933F934F935F936F937F938F939F9369
S11303C0AF93BF93EF93FF9380917400882329F038
S11303D08091740081508093740080917600811123
S11303E01AC01BBA81E080937600C098C19A8091AC
S11303F06000880F80936000809161008F5F84307B
S113040008F480C0109261008FEF8093600090E048
S113041045E020E07CC0109276001BBAC09AC198D7
S1130420E9E7F0E08485982F9170990F8695848789
S11304304BE026E06CC0E22FF0E0E758FF4F8081EC
S1130440382F3170932B990F869580832F5F421735
S113045090F79BBB80916100833009F05CC0809170
S11304607600811158C0809177008F5F8093770068
S113047090917000891338C01092770080917800B1
S11304808F5F8093780090916F0089132CC0109235
S113049078002091710030917200215F3F4F3093BA
S11304A0720020937100E0918600F0918700EC5F68
S11304B0FE4F849190E02817390720F010927200C3
S11304C010927100E0917100F0917200E15DFF4FB4
S11304D0E491E11108C0E2E6F0E08FE690E01192C9
S11304E08E179F07E1F737DF10927900E2E6F0E01C
S11304F0A9E7B0E02FE630E081918D93E217F3078E
S1130500D9F709C08093610090E045E020E0809134
S1130510600082BF90CFFF91EF91BF91AF919F9107
S11305208F917F916F915F914F913F912F910F9098
S10F05300FBE0F901F901895F894FFCF99
S113053CFF040000000000000000000000000001A7
S107054C01FFFF00A8
S9030000FC
