:1000000082C09CC09BC09AC099C098C097C096C03F
:1000100095C094C093C04FC191C090C08FC08EC096
:100020008DC00F0000000000000000000000000074
:1000300001FF0100000000000000000000000F08A8
:1000400000FF01000000000000000000000F080099
:1000500000FF010000000000000000000F08000089
:1000600000FF0100000000000000000F0800000079
:1000700000FF01000000000000000F080000000069
:1000800000FF000000000000010F08000000000059
:1000900000000000000001FF0F0800000000000049
:1000A0000000000001FF000F080000000000000039
:1000B000000001FF00000F08000000000000000029
:1000C00001FF0000000F080000000000000001FF19
:1000D000000000000F0800000000000001FF000009
:1000E0000000000F08010000000000FF00000000F9
:1000F00000000F080F0F0F0F0F0F0F0F0F0F0F0F35
:100100000F000100D20011241FBECFE5D1E0DEBFF9
:10011000CDBF10E0A0E6B0E0EEE2F4E002C0059052
:100120000D92A437B107D9F720E0A4E7B0E001C0F1
:100130001D92AB38B207E1F791D077C161CF8091C2
:100140008A00813069F028F08230E9F0833081F153
:1001500045C0B39945C08AE08093890081E02BC0F7
:10016000B3993CC08091890081113AC08091870089
:10017000836080628093870082E080938A0086E4B7
:10018000809388000895B39B05C08AE0809389001E
:1001900083E011C080918800811122C08EE180939C
:1001A0008800809187008F7D886080938700089504
:1001B000B39904C082E080938A00089580918900F9
:1001C00081110EC0809187008E7F846085FB992706
:1001D00090F990FB84F98F7D8093870010928A00BC
:1001E000089583E087BB86E088BB9FEF9ABB1BBA6C
:1001F00090E898B981B916B88BE080B910BE84E058
:1002000083BF8AEF82BF81E089BF08951092860084
:10021000109285008FEF9FEF909372008093710092
:10022000E2E6F0E0A8E7B0E011921D9280E0EF3640
:10023000F807D1F781E080936F00809370001092EF
:10024000770010927600109275001092740084E08E
:10025000809361008FEF809360000895C2DFD6DF46
:1002600078946DDFFECF8091710090917200A2E6CC
:10027000B0E020E030E0FC01E20FF31FEE5DFF4F45
:10028000E4914C91E40FED932F5F3F4F2D303105FA
:1002900091F7FC01E15DFF4F249120936F00FC0179
:1002A000E05DFF4F849180937000211103C081E0D5
:1002B00080936F0008951F920F920FB60F92112432
:1002C0002F933F934F935F936F937F938F939F935E
:1002D000AF93BF93EF93FF938091750081111CC082
:1002E0001BBA81E080937500C098C19A809160002C
:1002F000880F80936000809161008F5F843018F4D4
:100300008093610005C0109261008FEF80936000C0
:1003100080E035E090E00FC0109275001BBAC09AE3
:10032000C19890918400892F8170880F9695909341
:1003300084003BE096E02091600022BF391768F00E
:10034000E92FF0E0E858FF4F2081422F4170842BC5
:10035000880F269520839F5FF1CF8BBB8091610032
:10036000833009F051C08091750081114DC080919A
:1003700076008F5F8093760090917000891338C06B
:1003800010927600809177008F5F80937700909134
:100390006F00891711F067DF2BC0109277008091F2
:1003A0007100909172000F9690937200809371008B
:1003B000E0918500F0918600ED5FFE4F218130E0F5
:1003C0008217930720F01092720010927100E09152
:1003D0007100F0917200E15DFF4FE491E111DBCF1C
:1003E000E2E6F0E0119280E0EF36F807D9F7D3CFDC
:1003F00010927800E2E6F0E0A8E7B0E081918D93FA
:1004000080E0EF36F807D1F7FF91EF91BF91AF9100
:100410009F918F917F916F915F914F913F912F911C
:0E0420000F900FBE0F901F901895F894FFCF0D
:10042E00FF040000000000000000000000000001BA
:04043E0001FFFF00BB
:00000001FF
