S00E00004B61726966612E73726563C8
S113000016C02EC02DC074C02BC02AC029C028C061
S113001027C026C0A7C0A8C0ACC0ADC0AEC0AFC08A
S1130020B0C0B1C0B2C0B5C0B8C0BBC0BCC0112460
S11300301FBECFE9CDBF10E0A0E6B0E0EAE3F2E0F6
S113004002C005900D92AC37B107D9F720E0ACE7B8
S1130050B0E001C01D92A438B207E1F702D0EBC0B2
S1130060CFCF85B7806485BF17BA18BA1FBC80E4A8
S113007083BF8AEF82BF80E289BF78944DE05FE05E
S113008064EBF89480917E0010927E00789488232B
S113009049F1813061F410927C0080917C0090E001
S11300A020917D00FC01EE59FF4F30E009C0823001
S11300B0A1F740937C00F1CF3F5F31963D3029F0AA
S11300C010822313F9CF5083F7CFFC01E05AFF4F7E
S11300D0608381E0820F8D3018F480937D0002C02C
S11300E010927D0000000000000000000000C9CF55
S11300F01F920F920FB60F9211248F939F93AF9379
S1130100BF93EF93FF938091810080FD09C080919C
S1130110800082BF17BA18BA81E08093810080C042
S1130120E0918300F0E0EE59FF4F8081811104C01B
S113013088B7826088BF3DC0819582BFE09183000B
S1130140F0E0EE59FF4F8081805180938000E09170
S113015082008E2F90E08D30910548F5FC01E65F1A
S1130160FF4F099489E01AC08AE087BB82E088BB0C
S113017020C08CE019C089E00DC08AE00BC08CE07F
S113018009C081E103C082E101C084E187BB80E151
S1130190EECF88E187BB88E0EACF81E187BB81E0CD
S11301A0E6CF82E1E2CF84E187BB84E0E0CF109226
S11301B0820080918300E82FF0E0EE59FF4F908198
S11301C09F3010F410928100909182009F5F9D30C7
S11301D018F49093820024C01092820090917F00C2
S11301E0992319F0915090937F0090917F00911181
S11301F017C08F5F833018F48093830005C010927A
S1130200830082E080937E00E0918300E13011F46A
S1130210E0937E00F0E0E05AFF4F808180937F00FE
S1130220FF91EF91BF91AF919F918F910F900FBE6E
S10D02300F901F901895F894FFCF6B
S113023AB4B40A000000000000000000000000003E
S10F024A0A00000000000000000000009A
S9030000FC
