:1000000008C3C4C521C320C31FC31EC31DC31CC353
:10001000C8C51AC319C3DDC517C316C315C314C396
:1000200013C30F000F00000F0F00000F000F0F0091
:1000300010000F000F0F00000F0F000F0000001046
:100040000F000000000000000000000F0000100082
:100050000F000F0F00000F0F000F000000100F0027
:100060000000000000000000000F00001000000071
:100070000F000000000F0000000000100F000F0034
:10008000000F0F000F00000F0F00100000000F0006
:100090000000000F0000000000100F000000000032
:1000A000000000000000000001FF0100000000004F
:1000B0000000000000000F0400FF0100000000002D
:1000C00000000000000F040000FF0100000000001D
:1000D000000000000F04000000FF0100000000000D
:1000E0000000000F0400000000FF010000000000FD
:1000F00000000F040000000000FF000000000000EE
:10010000010F04000000000000000000000001FFDB
:100110000F040000000000000000000001FF000FBD
:100120000400000000000000000001FF00000F04B8
:10013000000000000000000001FF0000000F0400AC
:1001400000000000000001FF000000000F0400009C
:100150000000000001FF00000000000F040100008B
:10016000000000FF0000000000000F040F010F015D
:100170000F010F010F010F010F0001FF01FF01FF30
:1001800001FF01FF01FF01FF0E0501FF01FF01FF5C
:1001900001FF01FF01FF010E0500000E0700000036
:1001A000000E0700000E00010002FFFF0002000227
:1001B000FFFF0002FF070502FFFF0002FF02FFFF33
:1001C0000002FFFF0705FFFF0002FFFFFFFF000225
:1001D000FFFF000705FF0002FFFF00FF0002FFFF17
:1001E000000207050002FFFF00020002FFFF0002FD
:1001F000FF070502FFFF0002FF02FFFF0002FFFFF3
:100200000705FFFF0002FFFFFFFF0002FFFF0007DF
:1002100005FF0002FFFF00FF0002FFFF00020705CD
:100220000F0F0F0F0F0F0F0F0F0F0F0F0F00820089
:10023000000000000000000000000000008200003C
:1002400000000000000000000000000001010101AA
:10025000010101010101010101010F10FFFFFFFF79
:10026000FFFFFFFFFFFFFFFFFF0F10000000000078
:1002700000000100000000000F0800000100000065
:1002800000FF00000000000F080000FF0000000059
:100290000000000100000F08010000000000000045
:1002A0000000FF00000F08FF000000000100000038
:1002B000000000000F080000000000FF0001000027
:1002C0000000000F0800000000000000FF00000018
:1002D00001000F080001000000000000000000FF06
:1002E000000F0800FF0001000000000000000000F7
:1002F0000F08000000FF0000010000000000000FD8
:1003000008000000000000FF0000000000010F08CE
:10031000000000000000000000010000FF0F0800C6
:100320000000000100000000FF0000000F080000B6
:100330000000FF00000000000000000F08000000A7
:1003400000000000000000000000000A01000000A2
:100350000000010000000000000F07000100000085
:1003600000000100000000000F0700000100000075
:10037000000001000000000F070000000100000065
:100380000000010000000F07000000000100000055
:1003900000000100000F0700000000000100000045
:1003A000000001000F070000000000000000000036
:1003B0000000010F07000000000000000000000026
:1003C00000FF0F030000000000000000000000FF1D
:1003D000000F030000000000FF000000000000000C
:1003E0000F0300000000000000000000FF00000FED
:1003F0000300000000FF00000000000000000F03E9
:10040000000000000000000000FF0000000F0300DB
:100410000000FF0000000000000000000F030000CB
:10042000000000000000FF000000000F030000FFBC
:10043000000000000000000000000F0300000000AA
:10044000000000FF00000000000F0300FF0000009C
:1004500000000000000000000F030000000000008A
:10046000FF0000000000000F03FF0000000000007C
:100470000000000000000F0300000000000000006A
:100480000000000000000101000000000001000069
:10049000000000000F020001000000000001000049
:1004A0000000000F02FF0001000000FF000100003B
:1004B00000000F0200FF0001000000FF000100002B
:1004C000000F020000FF0001000000FF000100001B
:1004D0000F02000000FF0001000000FF0001000FFC
:1004E0000200000000FF0000000000FF00010F02FA
:1004F0000000000000FF0000000000FF000F0200ED
:100500000000000000000000000000FF0F020000DB
:1005100000000001000000000001000F02000000C8
:10052000000100000000000100000F0200000001B7
:1005300000FF0000000100FF000F0200000100FFAB
:100540000000000100FF00000F02000100FF00009A
:10055000000100FF0000000F020100FF0000000189
:1005600000FF000000000F0200FF0000000000FF7D
:1005700000000000000F02FF0000000000FF00006C
:10058000000000000F02000000000000000000005A
:10059000000000000000000000000000000000005B
:1005A000000000000000000000000000000000004B
:1005B000000000000000000000000000000000003B
:1005C000000000000000000000000000000000002B
:1005D000000000000000000000000000000000001B
:1005E000000000000000000000000000000000000B
:1005F00000000000000000000000000000000000FB
:1006000078004A017701FE011C0249021B035604CF
:10061000640511241FBECFE5D1E0DEBFCDBF10E0E1
:10062000A0E6B0E0EAEEFDE002C005900D92A4382D
:10063000B107D9F720E0A4E8B0E001C01D92A03ACC
:10064000B207E1F7F3D1CFC3DBCC81E287B986E80B
:1006500086B980E183B9009881EE94E00197F1F7C3
:1006600000C0000008953798009A089580919C007A
:10067000807F8F7E80939C0084E680939D0082E043
:1006800080939E0010929F00BA98C29A089580911C
:100690009E00882329F0EEE9F0E08081815080837C
:1006A00080919F00813079F028F0823011F1833001
:1006B000A1F14CC0B2994CC082E080939E0081E0D1
:1006C00080939F000895B29B03C010929F000895ED
:1006D00080919E0081113CC080919C00836080626B
:1006E00080939C0082E080939F0084E680939D002D
:1006F0000895B29B07C082E080939E0083E08093C0
:100700009F00089580919D00811122C080919C00DE
:100710008F7D886080939C000895B29904C082E028
:1007200080939F00089580919E00811111C0809157
:100730009C008E7F846085FB992790F990FB84F95B
:100740008F7D80939C0010929F00089510929F00CF
:10075000089510BE84E083BF8AEF82BF81E089BF25
:10076000029808951FBC85E08EBD8FEF8DBD8CBDB6
:1007700081E08CB90398089583E087BB86E088BB4D
:100780008FEF8ABB1BBA10B8E4DFECDF089510923C
:100790009900109298001092970080EF9FEF90932D
:1007A000740080937300E4E6F0E0AAE8B0E081E72B
:1007B00090E011921D92E817F907D9F7E4E6F0E00E
:1007C00081E085878687E5E7F0E085878687109258
:1007D0009B0010929A00109289001092880010924B
:1007E00087001092860084E0809363008FEF8093EF
:1007F0006200109285001092840080E498E3909348
:1008000061008093600008958BB78F7B8BBF089544
:1008100085B78E7F85BF85B78D7F85BF8BB7806499
:100820008BBF0895CF93DF9310DF1BBA80E4E9EF0D
:10083000F0E03197F1F700C000008150C1F713DFFD
:1008400081E080939A00789480919B008111FCCF85
:10085000E5E7F0E0158681E0868740E050E0EF01B3
:1008600031E015C0263010F49C939083263009F4B3
:100870009C8730939B0080919B008111FCCF9F5FF0
:100880009F3081F74F5F5F4F47305105F9F091E09E
:10089000242FDA01AB58BF4FFA01E558FF4FE2CFE2
:1008A000273011F49C8704C0353010F49C9390835A
:1008B00040939B0080919B008111FCCF915080F769
:1008C000215061507109211107C010C066E070E02D
:1008D00027E0C5E7D0E041E09EE03EEF320FDB01CC
:1008E000AB58BF4FFB01E558FF4FDACF93E0E5E788
:1008F000F0E032E821E0368720939B0080919B0056
:100900008111FCCF9150B9F7DF91CF910895CF932A
:10091000C82FF8943CDFC0939900C93048F4109276
:100920009A008C2F90E090939800809397001FC0BE
:10093000CF3F99F481E080939A0080E090E0FC0141
:10094000EB58FF4F108201968D309105C1F7E5E716
:10095000F0E0158681E086870AC010929A008C2FFD
:1009600090E090939800809397001092990078946B
:10097000CF910895CF9319BE1BBA80919C0082FD40
:1009800005C085DE80919C0082FFFBCF80919C009A
:100990008B7F80939C0089EF90E00197F1F700C076
:1009A000000064DECFE0C0B988B38C7F88BB1BBA7F
:1009B0002FDF85B7877E806185BF85B7806285BF61
:1009C000889585B78F7D85BF1FDF61DE80919C0094
:1009D00081FF0EC08D7F80939C0083EC99E001978E
:1009E000F1F700C0000080919C0082FF08C012C097
:1009F00083EC99E00197F1F700C00000D4CF47DE07
:100A000083EC99E00197F1F700C0000080919C0011
:100A100082FFF5CFF894BBDE8FEF79DFADDE26DE07
:100A2000789410B8FFDEB3DECF9108950EDEA4DE19
:100A3000AEDE1CDE8FEF6BDFF5DEA9DE78940F2EC5
:100A4000FAE0FF2EF02DCDE9D0E00F2EF4E6EF2EE8
:100A5000F02D00E418E3809185008111FCCFF09225
:100A600085008881882319F08881815088830FDE72
:100A700080918400882329F08091840081508093A4
:100A8000840080918400811122C0E09284008091D2
:100A9000600090916100892B49F0809160009091F5
:100AA00061000197909361008093600080916000E5
:100AB00090916100892B59F41093610000936000BC
:100AC00080919C00846080939C0054DFC4CF80910F
:100AD0009C0081FF03C08D7F80939C0080919C00CF
:100AE00082FF03C08B7F80939C0080919C0083FFDA
:100AF00005C0877F80939C003DDFADCF84FFABCFE7
:100B000080919C008F7E80939C0080919900893019
:100B100040F4883019F480E0FADE9DCF8F5FF7DE75
:100B20009ACF80E0F4DE97CF44E650E021E730E052
:100B3000DA018091730090917400FD01E41BF50BC4
:100B4000E80FF91FEE5DFF4FE4918C91E80FED93F4
:100B5000A217B30771F7E0917300F0917400E15DA3
:100B6000FF4F8491A4E6B0E01D968C931D97E09111
:100B70007300F0917400E05DFF4FE4911E96EC93DA
:100B8000811103C081E08093710008951F920F923C
:100B90000FB60F921124F8940F900FBE0F901F9074
:100BA00018951F920F920FB60F9211248F93809178
:100BB0008500882329F080918500815080938500ED
:100BC0008FEF8DBD8CBD8F910F900FBE0F901F903A
:100BD00018951F920F920FB60F9211242F933F93E7
:100BE0004F935F936F937F938F939F93AF93BF9335
:100BF000EF93FF938091870081111AC01BBA81E0A7
:100C000080938700C098C19A80916200880F80937A
:100C10006200809163008F5F843008F4BDC0109241
:100C200063008FEF8093620090E045E020E0B9C060
:100C3000109287001BBAC09AC198EAE8F0E0848558
:100C4000982F9170990F869584874BE026E0A9C074
:100C5000E22FF0E0E657FF4F8081382F3170932B61
:100C6000990F869580832F5F421790F79BBB8091E9
:100C70006300833009F0A6C0809187008111A2C073
:100C8000809188008F5F8093880090917200891313
:100C900092C01092880080919A00882389F18091F7
:100CA0009B00882309F487C08091820081117DC058
:100CB000E4E6F0E081E790E011928E179F07E1F7FC
:100CC00074C0DF01A41BB50BAB58BF4F8C91908152
:100CD000890F81932E173F07A1F7A5E7B0E01D9676
:100CE0008C911D97E4E6F0E085871E969C9196878F
:100CF000811103C081E08093710010929B005BC062
:100D0000809189008F5F8093890090917100891391
:100D10003BC01092890080917300909174000F96EF
:100D20009093740080937300E0919700F091980085
:100D3000EE0FFF1FE050FA4F259134918091730020
:100D4000909174008217930770F0E0919700F091F2
:100D50009800EE0FFF1FE250FA4F85919491909307
:100D6000740080937300E0917300F0917400E15D72
:100D7000FF4FE491E11108C0E4E6F0E081E790E084
:100D800011928E179F07E1F7CFDE15C081918D93E9
:100D90002E173F07D9F716C08093630090E045E017
:100DA00020E08091620082BF53CF44E650E021E70B
:100DB00030E0FA0186CFE4E6F0E0AAE8B0E021E70F
:100DC00030E0E4CFFF91EF91BF91AF919F918F9170
:100DD0007F916F915F914F913F912F910F900FBE37
:0A0DE0000F901F901895F894FFCFB4
:100DEA004038FF040000000000000000000000007E
:100DFA00000101FFFF0000000000000000000000E9
:040E0A0000000101E2
:00000001FF
